{
  "contractName": "Test",
  "abi": [
    {
      "inputs": [],
      "stateMutability": "nonpayable",
      "type": "constructor"
    },
    {
      "anonymous": false,
      "inputs": [
        {
          "indexed": false,
          "internalType": "uint256",
          "name": "id",
          "type": "uint256"
        },
        {
          "indexed": false,
          "internalType": "string",
          "name": "mail",
          "type": "string"
        }
      ],
      "name": "peerAdded",
      "type": "event"
    },
    {
      "inputs": [
        {
          "internalType": "uint256",
          "name": "",
          "type": "uint256"
        }
      ],
      "name": "peers",
      "outputs": [
        {
          "internalType": "uint256",
          "name": "id",
          "type": "uint256"
        },
        {
          "internalType": "string",
          "name": "mail",
          "type": "string"
        }
      ],
      "stateMutability": "view",
      "type": "function"
    },
    {
      "inputs": [],
      "name": "peersCount",
      "outputs": [
        {
          "internalType": "uint256",
          "name": "",
          "type": "uint256"
        }
      ],
      "stateMutability": "view",
      "type": "function"
    },
    {
      "inputs": [
        {
          "internalType": "string",
          "name": "_mail",
          "type": "string"
        }
      ],
      "name": "addPeer",
      "outputs": [],
      "stateMutability": "nonpayable",
      "type": "function"
    }
  ],
  "bytecode": "0x608060405234801562000010575f80fd5b50620000576040518060400160405280600d81526020017f61626340676d61696c2e636f6d00000000000000000000000000000000000000815250620000a360201b60201c565b6200009d6040518060400160405280600d81526020017f64656640676d61696c2e636f6d00000000000000000000000000000000000000815250620000a360201b60201c565b620005d6565b60015f815480929190620000b7906200017e565b919050555060405180604001604052806001548152602001828152505f8060015481526020019081526020015f205f820151815f0155602082015181600101908162000104919062000425565b509050507fd6d2b2f7242c6fa7c89f2ba2572cffffc1ef97802bd4dafa96185cb4062ea7f4600154826040516200013d929190620005a4565b60405180910390a150565b7f4e487b71000000000000000000000000000000000000000000000000000000005f52601160045260245ffd5b5f819050919050565b5f6200018a8262000175565b91507fffffffffffffffffffffffffffffffffffffffffffffffffffffffffffffffff8203620001bf57620001be62000148565b5b600182019050919050565b5f81519050919050565b7f4e487b71000000000000000000000000000000000000000000000000000000005f52604160045260245ffd5b7f4e487b71000000000000000000000000000000000000000000000000000000005f52602260045260245ffd5b5f60028204905060018216806200024657607f821691505b6020821081036200025c576200025b62000201565b5b50919050565b5f819050815f5260205f209050919050565b5f6020601f8301049050919050565b5f82821b905092915050565b5f60088302620002c07fffffffffffffffffffffffffffffffffffffffffffffffffffffffffffffffff8262000283565b620002cc868362000283565b95508019841693508086168417925050509392505050565b5f819050919050565b5f6200030d62000307620003018462000175565b620002e4565b62000175565b9050919050565b5f819050919050565b6200032883620002ed565b62000340620003378262000314565b8484546200028f565b825550505050565b5f90565b6200035662000348565b620003638184846200031d565b505050565b5b818110156200038a576200037e5f826200034c565b60018101905062000369565b5050565b601f821115620003d957620003a38162000262565b620003ae8462000274565b81016020851015620003be578190505b620003d6620003cd8562000274565b83018262000368565b50505b505050565b5f82821c905092915050565b5f620003fb5f1984600802620003de565b1980831691505092915050565b5f620004158383620003ea565b9150826002028217905092915050565b6200043082620001ca565b67ffffffffffffffff8111156200044c576200044b620001d4565b5b6200045882546200022e565b620004658282856200038e565b5f60209050601f8311600181146200049b575f841562000486578287015190505b62000492858262000408565b86555062000501565b601f198416620004ab8662000262565b5f5b82811015620004d457848901518255600182019150602085019450602081019050620004ad565b86831015620004f45784890151620004f0601f891682620003ea565b8355505b6001600288020188555050505b505050505050565b620005148162000175565b82525050565b5f82825260208201905092915050565b5f5b83811015620005495780820151818401526020810190506200052c565b5f8484015250505050565b5f601f19601f8301169050919050565b5f6200057082620001ca565b6200057c81856200051a565b93506200058e8185602086016200052a565b620005998162000554565b840191505092915050565b5f604082019050620005b95f83018562000509565b8181036020830152620005cd818462000564565b90509392505050565b61082d80620005e45f395ff3fe608060405234801561000f575f80fd5b506004361061003f575f3560e01c80639dd0595014610043578063ae6664e01461005f578063be4f3e8f1461007d575b5f80fd5b61005d60048036038101906100589190610345565b6100ae565b005b61006761014d565b60405161007491906103a4565b60405180910390f35b610097600480360381019061009291906103e7565b610153565b6040516100a592919061048c565b60405180910390f35b60015f8154809291906100c0906104e7565b919050555060405180604001604052806001548152602001828152505f8060015481526020019081526020015f205f820151815f0155602082015181600101908161010b9190610728565b509050507fd6d2b2f7242c6fa7c89f2ba2572cffffc1ef97802bd4dafa96185cb4062ea7f46001548260405161014292919061048c565b60405180910390a150565b60015481565b5f602052805f5260405f205f91509050805f0154908060010180546101779061055b565b80601f01602080910402602001604051908101604052809291908181526020018280546101a39061055b565b80156101ee5780601f106101c5576101008083540402835291602001916101ee565b820191905f5260205f20905b8154815290600101906020018083116101d157829003601f168201915b5050505050905082565b5f604051905090565b5f80fd5b5f80fd5b5f80fd5b5f80fd5b5f601f19601f8301169050919050565b7f4e487b71000000000000000000000000000000000000000000000000000000005f52604160045260245ffd5b61025782610211565b810181811067ffffffffffffffff8211171561027657610275610221565b5b80604052505050565b5f6102886101f8565b9050610294828261024e565b919050565b5f67ffffffffffffffff8211156102b3576102b2610221565b5b6102bc82610211565b9050602081019050919050565b828183375f83830152505050565b5f6102e96102e484610299565b61027f565b9050828152602081018484840111156103055761030461020d565b5b6103108482856102c9565b509392505050565b5f82601f83011261032c5761032b610209565b5b813561033c8482602086016102d7565b91505092915050565b5f6020828403121561035a57610359610201565b5b5f82013567ffffffffffffffff81111561037757610376610205565b5b61038384828501610318565b91505092915050565b5f819050919050565b61039e8161038c565b82525050565b5f6020820190506103b75f830184610395565b92915050565b6103c68161038c565b81146103d0575f80fd5b50565b5f813590506103e1816103bd565b92915050565b5f602082840312156103fc576103fb610201565b5b5f610409848285016103d3565b91505092915050565b5f81519050919050565b5f82825260208201905092915050565b5f5b8381101561044957808201518184015260208101905061042e565b5f8484015250505050565b5f61045e82610412565b610468818561041c565b935061047881856020860161042c565b61048181610211565b840191505092915050565b5f60408201905061049f5f830185610395565b81810360208301526104b18184610454565b90509392505050565b7f4e487b71000000000000000000000000000000000000000000000000000000005f52601160045260245ffd5b5f6104f18261038c565b91507fffffffffffffffffffffffffffffffffffffffffffffffffffffffffffffffff8203610523576105226104ba565b5b600182019050919050565b7f4e487b71000000000000000000000000000000000000000000000000000000005f52602260045260245ffd5b5f600282049050600182168061057257607f821691505b6020821081036105855761058461052e565b5b50919050565b5f819050815f5260205f209050919050565b5f6020601f8301049050919050565b5f82821b905092915050565b5f600883026105e77fffffffffffffffffffffffffffffffffffffffffffffffffffffffffffffffff826105ac565b6105f186836105ac565b95508019841693508086168417925050509392505050565b5f819050919050565b5f61062c6106276106228461038c565b610609565b61038c565b9050919050565b5f819050919050565b61064583610612565b61065961065182610633565b8484546105b8565b825550505050565b5f90565b61066d610661565b61067881848461063c565b505050565b5b8181101561069b576106905f82610665565b60018101905061067e565b5050565b601f8211156106e0576106b18161058b565b6106ba8461059d565b810160208510156106c9578190505b6106dd6106d58561059d565b83018261067d565b50505b505050565b5f82821c905092915050565b5f6107005f19846008026106e5565b1980831691505092915050565b5f61071883836106f1565b9150826002028217905092915050565b61073182610412565b67ffffffffffffffff81111561074a57610749610221565b5b610754825461055b565b61075f82828561069f565b5f60209050601f831160018114610790575f841561077e578287015190505b610788858261070d565b8655506107ef565b601f19841661079e8661058b565b5f5b828110156107c5578489015182556001820191506020850194506020810190506107a0565b868310156107e257848901516107de601f8916826106f1565b8355505b6001600288020188555050505b50505050505056fea2646970667358221220b3cdea61a480af89d927e0800883ea98eb6cd49e6dbd326684eeb58d64121f2d64736f6c63430008150033",
  "immutableReferences": {},
  "source": "pragma solidity 0.8.21;\r\n\r\ncontract Test {\r\n    // Model a Peer\r\n    struct Peer {\r\n        uint id;\r\n        string mail;\r\n    }\r\n\r\n    // Read/write Peers\r\n    mapping(uint => Peer) public peers;\r\n\r\n    event peerAdded(\r\n        uint id,\r\n        string mail\r\n    );\r\n\r\n    // Store Peer Count\r\n    uint public peersCount;\r\n\r\n    constructor () public {\r\n        addPeer(\"abc@gmail.com\");\r\n        addPeer(\"def@gmail.com\");\r\n    }\r\n\r\n    function addPeer(string memory _mail) public {\r\n        peersCount ++;\r\n        peers[peersCount] = Peer(peersCount, _mail);\r\n        emit peerAdded(peersCount,_mail);\r\n    }\r\n}\r\n\r\ncontract Transaction {\r\n    // Model a Peer\r\n    struct Trans {\r\n        uint id;\r\n        string amt;\r\n    }\r\n\r\n    // Read/write Peers\r\n    mapping(uint => Trans) public trans;\r\n\r\n    event transAdded(\r\n        uint id,\r\n        string amt\r\n    );\r\n\r\n    // Store Peer Count\r\n    uint public transCount;\r\n\r\n    constructor () public {\r\n        addTran(\"750\");\r\n        addTran(\"1250\");\r\n    }\r\n\r\n    function addTran(string memory _amt) public {\r\n        transCount ++;\r\n        trans[transCount] = Trans(transCount, _amt);\r\n        emit transAdded(transCount,_amt);\r\n    }\r\n}",
  "sourcePath": "C:\\xampp\\htdocs\\Project\\block\\contracts\\Transaction.sol",
  "compiler": {
    "name": "solc",
    "version": "0.8.21+commit.d9974bed.Emscripten.clang"
  },
  "schemaVersion": "3.4.16",
  "updatedAt": "2024-02-29T05:03:16.030Z",
  "devdoc": {
    "kind": "dev",
    "methods": {},
    "version": 1
  },
  "userdoc": {
    "kind": "user",
    "methods": {},
    "version": 1
  }
}